:10000000B9C00000D3C00000D1C00000CFC00000C4
:10001000CDC00000CBC00000C9C00000C7C00000B8
:10002000C5C00000C3C000000C94EB0B0C94B50BD2
:10003000BDC00000BBC00000B9C00000B7C00000D8
:10004000B5C00000B3C00000B1C00000AFC00000E8
:10005000ADC00000ABC00000A9C00000A7C00000F8
:10006000A5C00000A3C00000A1C000009FC0000008
:100070009DC000009BC0000099C0000097C0000018
:1000800095C0000093C0000091C000008FC0000028
:100090008DC000008BC0000089C0000087C0000038
:1000A00085C0000083C0000081C000001201100163
:1000B000FF000008D016040507050102030109022C
:1000C000200001010080320904000002FF0000004E
:1000D0000705830220000007050402200000040336
:1000E00009043A034E0061007400650020004C00D2
:1000F0006100770073006F006E00200061006E00E9
:10010000640020004F00700065006E004300420054
:100110004D0020007400650061006D000000440384
:10012000780075006D00310035003400310020008A
:1001300066006C006F0070007000790020006100A4
:1001400064006100700074006500720020002800E7
:10015000500052004F004D004900430052004F0034
:10016000290000000004080C1014181C4044484CDE
:100170005054585C11241FBECFEFDAE0DEBFCDBF74
:1001800011E0A0E0B1E0ECEBF3E202C005900D92CB
:10019000AE31B107D9F711E0AEE1B1E001C01D9277
:1001A000AE33B107E1F7F1D00C94DC1129CFA9EE01
:1001B000B0E09C91977081E080932E0184E08C9355
:1001C000EBEEF0E080818062808383E08C9380811D
:1001D000806280839C9308952091E900E0E0F1E043
:1001E00041E050E01BC08093E900BA0102C0660FF5
:1001F000771F8A95E2F76093EA001092EA008091F7
:10020000EB0088608093EB008091EB0085FF05C0D8
:100210008091EB0080618093EB0031968081882390
:1002200011F727702093E900089580912E01089519
:1002300023E02093E90070E045E151E00E9463096A
:1002400080912E01882311F080E008958091E800CC
:10025000982F9E7F9093E8008F778093E80081E04D
:10026000089524E02093E90070E045E151E00E9408
:10027000A20980912E01882311F080E008958091D9
:10028000E800982F9B7F9093E8008F778093E80099
:1002900081E00895A89580912E01882311F080E0D7
:1002A000089527D6882311F481E0089518D681E0B7
:1002B000089510921E0110922C0180E0FCC581E08F
:1002C000FAD510922E0181E080931E0108950F93BC
:1002D0001F93DF93CF93CDB7DEB728970FB6F8946F
:1002E000DEBF0FBECDBF809136018076803299F59A
:1002F0008E010F5F1F4F88E0F80111928A95E9F790
:1003000080913701B801AAD4682F8F3F19F484E097
:10031000D2D521C08091E800877F8093E80080914A
:10032000360187FF0BC0772767FD7095C8010E94D3
:10033000E1098091E800982F9B7F08C08091E80038
:1003400080FFFCCF8091E800982F9E7F9093E8007B
:100350008F778093E80028960FB6F894DEBF0FBE23
:10036000CDBFCF91DF911F910F91089535DF83E0CD
:1003700061E846E2F8D684E060E846E2F4D682E03E
:100380009AD581E080932C010895DF92EF92FF923D
:100390000F931F93DF93CF93CDB7DEB727970FB699
:1003A000F894DEBF0FBECDBF80E090E020E80FB62E
:1003B000F89420936100809361000FBE2EE088E1E5
:1003C00090E00FB6F894A895809360000FBE20933C
:1003D00060000E94890B01C0A89580911E018823AE
:1003E000D9F348D580E067D535D494E0E92EF12CD7
:1003F000EC0EFD1E83E0D82E8E010F5F1F4FA895D7
:100400002FC080913501843031F58093E9008091CF
:10041000E80085FF20C0C70164E023DF882319F4CA
:1004200084E049D518C0F8018D2D11928A95E9F71D
:10043000C701B80166D118162CF48983C80163E09E
:10044000F7DE09C0882339F084E035D58091EB00D0
:1004500080628093EB001EDF882311F410922E013E
:1004600080912C01882369F601C0A89580911E0116
:10047000882309F0C4CFF9CF9C01613011F483E0E7
:1004800003C0662369F484E08093E900309321017E
:1004900020932001609303018091E80085FFFCCF49
:1004A00008958093F100809120019091210101979E
:1004B00090932101809320018091E80085FD11C077
:1004C0008091E800982F9E7F9093E8008F7780932B
:1004D000E8008091E80085FD04C080912E0188230A
:1004E000C1F380912E0181118FEF0895FC0180915D
:1004F000E80085FD11C08091E800982F9B7F9093C4
:10050000E8008F778093E8008091E80085FD04C0C3
:1005100080912E018823C1F380912E01882311F050
:100520008FEF08958091F100808380912001909158
:1005300021010197909321018093200180E008958B
:10054000282F80912401882361F0E0912901F09106
:100550002A012193F0932A01E093290120E030E061
:100560002AC090911F01943091F4822F83508330E0
:1005700040F02B3031F0233121F0243111F02631BD
:1005800019F481E08093240110921F0112C0E92F19
:10059000F0E0E65EFE4F8081821721F49F5F90932A
:1005A0001F0107C010921F01222319F481E08093DC
:1005B0001F0121E030E0C9010895809124018823C2
:1005C00011F088E808950C94BB10809124018823D1
:1005D00011F088E808950C9453111F93182FB0DF81
:1005E000892B19F0812F0E94FC101F9108951F93F1
:1005F000182FA6DF892B19F0812F0E9471111F91EE
:100600000895809103018130B1F44091F30020916D
:10061000F200942F80E030E0822B932B892B31F471
:100620008091200190912101892BE9F08091E800CF
:10063000982F9E7F13C08823B1F480912001909160
:100640002101009719F065E171E00BD68091E80077
:1006500085FD09C08091E800982F9B7F9093E8006A
:100660008F778093E8008FE080930301109221013F
:100670001092200108950F931F93CF93DF938C0165
:10068000EB01CB0161E0F8DE06C0F801099509DF56
:100690002197882311F42097C1F7B3DF80E0DF9121
:1006A000CF911F910F910895CF92DF92EF92FF9219
:1006B0000F931F93DF93CF930F92CDB7DEB77C01DB
:1006C0008B01CB0160E0D8DE6E010894C11CD11C07
:1006D00009C0C6010BDF01501040882331F4898125
:1006E000F701099501151105A1F78BDF80E00F9047
:1006F000CF91DF911F910F91FF90EF90DF90CF90FE
:100700000895AF92BF92CF92DF92EF92FF920F9334
:100710001F93DF93CF9300D00F92CDB7DEB76C015C
:100720005B01809122018E7F80932201D6011C9172
:100730001296ED90FC90139783E0BDD31B3109F422
:100740000DC21C3190F4173109F4E3C1183130F4B3
:10075000183009F1193009F06EC2F3C0193109F4EB
:1007600015C21A3108F028C2E5C11E3109F441C290
:100770001F3138F41C3109F4E0C11D3109F05BC2AE
:10078000F6C1103209F444C2103208F438C21132F2
:1007900009F051C246C28091230184FD26C0F601B2
:1007A0008181807F803509F44CC0813570F48032BE
:1007B00031F1813220F4803109F03DC216C080331E
:1007C00009F1803409F037C220C0803709F471C0C4
:1007D000813720F4803609F02EC236C0803809F403
:1007E0006BC0803909F027C2A7C0E0912F01F091BA
:1007F00030010480F581E02DC70109954BC184EFDC
:100800009EE09CC08BE79FE099C0C70161E034DEA9
:100810008E010E5F1F4F11C0C8010E94E60F8A8132
:1008200040DE882309F030C18B813BDE882309F04C
:100830002BC18EEF9FEFE80EF91EE114F10461F772
:1008400023C189E690E17AC03FEFC32E3FE7D32E64
:10085000CE20DF20C114D10409F41CC11092240160
:10086000C60161E009DE229880E49CE90197F1F776
:100870000E94BB1000E010E05E010894A11CB11CB6
:10088000602F6170C5010E94DF1087FD03C189815F
:1008900008DE882351F4F7FE03C08981853529F0ED
:1008A0000F5F1F4F0C151D0558F3ABDE0E94BB10E8
:1008B000F1C08DED92E042C0E114F10409F4EAC008
:1008C00010922401C70161E0D7DD84B1837C84B933
:1008D00080E49CE90197F1F70E945311239A00E00C
:1008E00010E022E0B22E9EEFC92E9FEFD92ECE0C43
:1008F000DF1C1BC090E028E01D99FECF1D9BFECFA2
:100900008B2D8A95F1F783B1990F86958695817025
:10091000982B215089F70C151D0509F42398892F70
:10092000C0DD882329F40F5F1F4F0E151F0510F33C
:1009300068DE0E945311AEC085EE92E0B7019BDEE7
:10094000A9C08091230184FD27C0D60111968C9106
:10095000807F803509F458C0813570F4803269F1A8
:10096000813220F4803109F066C116C0803341F134
:10097000803409F060C127C0803709F487C081370F
:1009800020F4803609F057C142C0803809F484C091
:10099000803909F050C1BAC0E0912F01F0913001C7
:1009A000D60111966C916F700280F381E02DC70122
:1009B0000995F501928381833CC181E49FE068C081
:1009C00082EB9FE065C0C70160E056DD8E010E5FDF
:1009D0001F4F83E0C82ED12CCC0EDD1E11C0C801E4
:1009E00085DD882309F050C0C60180DD882309F029
:1009F0004BC0C8010E9420108EEF9FEFE80EF91E39
:100A0000E114F10461F740C082E990E141C0E114D2
:100A1000F10409F43FC010922401C70160E02CDD0D
:100A2000229805E211E005C0D8018D918D010E9448
:100A3000FC108091290190912A0108171907A1F74C
:100A400085E291E090932A018093290100E010E073
:100A50006E010894C11CD11C0DC0C60147DD88235E
:100A600061F4602F617089810E94331187FD12C08B
:100A70000F5F1F4F0E151F0580F3602F617080E020
:100A80000E9433110E94BB10BCDD04C08DEE92E0C9
:100A9000B7010ADE80E0D0C0E114F104D9F310926E
:100AA0002401C70160E0E8DC84B1837C84B905E2FD
:100AB00011E005C0F80181918F010E9471118091B0
:100AC000290190912A0108171907A1F785E291E001
:100AD00090932A018093290100E010E06E010894B0
:100AE000C11CD11C0DC0C60101DD882361F4602F3B
:100AF000617089810E949611882361F60F5F1F4FF4
:100B00000E151F0580F30E945311BECF87EF92E0B0
:100B1000BFCF80912D01D50112961C921E92119784
:100B2000882309F486C081E090E012969C938E930E
:100B300011977FC010922D017CC0E0912F01F091A0
:100B400030010680F781E02DD60111968C91119726
:100B500012966C910995882309F49CCFE0912F019E
:100B6000F09130010084F185E02D099556C0E091A7
:100B70002F01F09130010284F385E02DD60111960A
:100B80008C91119712966C91099553C08091230115
:100B900084FD51C080B38F7080BB8AB1807F8AB9D9
:100BA00081B38F7081BB8BB1807F8BB99FB189B1CD
:100BB0008F70907F892B31C08091230184FD3BC0D1
:100BC00080B3806F80BB8AB18F608AB981B38F7028
:100BD00081BB8BB1807F8BB921B3D60111969C91DB
:100BE000892F807F822B81BB8BB19F70982B9BB903
:100BF00020C08091230184FD1EC0DFDC0EC08091E7
:100C0000230184FD18C0D60111968C91E6DC11C039
:100C10008091230184FD0FC0D8DCF501818312820D
:100C200008C08091230184FD06C0D60111968C91E5
:100C3000DEDC82E001C08FEF0F900F900F90CF911C
:100C4000DF911F910F91FF90EF90DF90CF90BF90B9
:100C5000AF900895109223011CD183C6CF93DF93E8
:100C6000EB01823009F486C0833038F4882309F41C
:100C700038C0813009F08DC037C0833009F475C0A9
:100C8000843009F086C08091E800877F8093E80077
:100C90008091E80080FFFCCF8091E800982F9E7F34
:100CA0009093E8008F778093E80088EE93E020E946
:100CB00031E0F9013197F1F70197D9F788E10FB6E3
:100CC000F89480936000109260000FBE10D5F894E5
:100CD0001092810010928900109288000C94801F5D
:100CE00056C0188281E056C085E291E090932A01B7
:100CF0008093290183E0DFD080912F019091300112
:100D0000892B29F4A7DF9093300180932F018091E4
:100D10002F0190913001892BE1F187E0888383E0F6
:100D20008983909123019A8380912201882379F00D
:100D300091609A8381E080932201E0912F01F091EC
:100D400030010190F081E02D80E0099530DA80914A
:100D5000220180688093220180912C01882319F45C
:100D60008A8182608A8388E015C01092220182E025
:100D7000A2D00DC08091220180FD09C0E0912F0119
:100D8000F09130010190F081E02D80E0099580E044
:100D900001C08FEFDF91CF9108950F931F93CF93F1
:100DA000DF938A01E9011882292F33272230310588
:100DB00061F02330310571F02130310509F04DC06B
:100DC000ECEAF0E022E130E04CC0EEEBF0E020E2B3
:100DD00030E047C090708130910571F0813091050D
:100DE00038F08230910561F0039709F036C00EC0EB
:100DF000EEEDF0E0849107C0E2EEF0E0849103C0F4
:100E0000EEE1F1E08491282F30E02BC080E090E00B
:100E10000E94D411282F30E0209530953070EAE000
:100E2000F1E00FC0C9016AE070E00E94C011C096F5
:100E300091838083C9016AE070E00E94C0119B0128
:100E400032972115310571F780910401282F30E088
:100E500082E08883E4E0F1E004C0E0E0F0E020E03C
:100E600030E0D801ED93FC93C901DF91CF911F9140
:100E70000F91089580E28AB98BB98AE196E0909348
:100E8000890080938800E1E8F0E080818D608083B4
:100E9000089514B815B880B38F7080BB8AB1807F75
:100EA0008AB981B38F7081BB8BB1807F8BB9089574
:100EB00083B18C77089580932B01823051F0833079
:100EC00018F4882341F00895833029F0843031F4F8
:100ED00004C05D9808955D9A08955D9A0895809183
:100EE0002B018350823020F48BB190E289278BB99B
:100EF0000895B19902C080E00895B19A81E0089503
:100F00001F93DF93CF9300D00F92CDB7DEB7E6E308
:100F1000F1E08091F100819381E0EE33F807C9F7A9
:100F20008091360130913701353009F486C0363072
:100F300040F43130C1F1313070F0333009F0FDC090
:100F400032C0383009F4CAC0393009F4DDC0363057
:100F500009F0F3C091C0803821F0823809F0EDC06B
:100F600008C09091310180913201882391F0926004
:100F700010C080913A018093E9008091EB0090E0ED
:100F800025E0969587952A95E1F7982F9170109214
:100F9000E9008091E800877F8093E8009093F1005A
:100FA0001092F100A6C0882319F0823009F0C5C064
:100FB00090E08F719070009721F0029709F0BEC009
:100FC0000CC080913801813009F0B8C01092320114
:100FD000333069F5809332012AC08091380188232B
:100FE00031F520913A01277009F4A8C02093E90057
:100FF0008091EB0080FF1BC0333021F48091EB0027
:10100000806213C08091EB0080618093EB0081E0EF
:1010100090E002C0880F991F2A95E2F78093EA00BA
:101020001092EA008091EB0088608093EB001092B0
:10103000E9008091E800877F63C0882309F07DC0C4
:10104000109138018091E800877F8093E800B5D047
:1010500005C080913501882309F470C08091E800B3
:1010600080FFF7CF912F9F7719F083E080933501B0
:1010700090689093E30062C08058823008F05DC0B1
:10108000809138019091390160913A01AE014E5F33
:101090005F4F9E012F5F3F4F80DEBC01009709F438
:1010A0004DC08091E800877F8093E800298122234A
:1010B00021F48A819B81EBD107C08A819B812130F9
:1010C00011F44ED201C07DD18091E800982F9B7F12
:1010D0009093E8008F778093E80030C0803869F5FE
:1010E0008091E800877F8093E800809133018093AE
:1010F000F1008091E800982F9E7F9093E8008F7711
:101100008093E8005AD01AC08823B9F4909138012E
:101110009230A0F48091E800877F8093E80090935C
:1011200033014BD080913301882311F483E001C057
:1011300084E0809335011AD901C0C9D88091E800B4
:1011400083FF0AC08091EB0080628093EB00809166
:10115000E800877F8093E8000F900F900F90CF9169
:10116000DF911F9108958093E9008091EB008160E9
:101170008093EB001092ED006093EC004093ED0043
:101180008091EE00881F8827881F08951092F40030
:1011900090E09093E9001092F0001092E8008091A6
:1011A000ED008D7F8093ED008091EB008E7F80932A
:1011B000EB009F5F973069F708958091360188238F
:1011C000BCF404C0809135018823F9F08091E800D7
:1011D00082FFF8CF8091E800982F9B7F9093E800E2
:1011E0008F778093E800089580913501882369F016
:1011F0008091E80080FFF8CF8091E800982F9E7FD3
:101200009093E8008F778093E800089594E68091AA
:10121000EC0080FF05C08091E80080FF05C01FC082
:101220008091E80082FD1BC080913501882311F474
:1012300082E008958091EB0085FF02C081E008956F
:101240008091E10082FFE3CF8091E1008B7F80936A
:10125000E100992311F483E008959150D8CF80E004
:101260000895FF920F931F93CF93DF93EC018B01AF
:10127000CDDFF82E8823F1F01FC08091E80085FDB6
:1012800016C08091E800982F9B7F9093E8008F779D
:101290008093E8000115110531F0F80109958130BE
:1012A00011F484E00AC0B2DF882321F006C08091E7
:1012B000F1002197209709F78F2DDF91CF911F9192
:1012C0000F91FF900895DF92EF92FF920F931F937B
:1012D000CF93DF93182F092FEB017A0197DFD82ED8
:1012E000882339F5812F902F9C01890120C080919E
:1012F000E80085FD16C08091E800982F9E7F9093AE
:10130000E8008F778093E800E114F10431F0F701F1
:101310000995813011F484E00DC078DF882339F01D
:1013200009C0F80181918F018093F10021972097E6
:10133000F1F68D2DDF91CF911F910F91FF90EF90DE
:10134000DF900895DF92EF92FF920F931F93CF9358
:10135000DF93182F092FEB017A0158DFD82E88234D
:1013600039F5812F902F9C01890120C08091E800E0
:1013700085FD16C08091E800982F9B7F9093E80030
:101380008F778093E800E114F10431F0F7010995BB
:10139000813011F484E00DC039DF882339F009C0B1
:1013A0008091F100F80181938F0121972097F1F648
:1013B0008D2DDF91CF911F910F91FF90EF90DF90D6
:1013C00008959C0140913C0150913D0146175707FB
:1013D00018F4D901E0E049C06115710511F0AB01C5
:1013E000F8CF8091E800982F9E7F9093E8008F7748
:1013F0008093E80040E050E0ECCF8091E80083FF6C
:1014000002C081E008958091E80082FD38C080919B
:1014100035018823D1F18091E80080FF26C08091BA
:10142000F3009091F200782F60E0292F30E0262B16
:10143000372B07C08D918093F100415050402F5FB2
:101440003F4F4115510519F02830310598F3E0E080
:101450002830310509F4E1E08091E800982F9E7F63
:101460009093E8008F778093E8004115510529F6A5
:10147000EE2319F604C080913501882331F0809164
:10148000E80082FFF8CF80E0089582E008959C0193
:1014900040913C0150913D014617570710F4E0E0A0
:1014A0004BC06115710511F0AB01F9CF8091E800D7
:1014B000982F9E7F9093E8008F778093E80040E01C
:1014C00050E0EDCF8091E80083FF02C081E00895F5
:1014D0008091E80082FD3CC080913501882309F4A9
:1014E0003DC08091E80080FF27C08091F30090917B
:1014F000F200782F60E0892F90E0862B972B09C0AF
:10150000F9012F5F3F4FE491E093F10041505040CB
:1015100001964115510519F08830910588F3E0E0F6
:10152000089709F4E1E08091E800982F9E7F90935E
:10153000E8008F778093E8004115510509F0C2CF8C
:10154000EE2309F0BFCF04C080913501882331F02C
:101550008091E80082FFF8CF80E0089582E008954E
:10156000CF92DF92EF92FF920F931F93CF93DF936F
:101570009C01E0903C01F0903D01E616F70610F466
:1015800040E04EC06115710511F07B01F9CF8091EB
:10159000E800982F9E7F9093E8008F778093E80073
:1015A000EE24FF24EDCF8091E80083FF02C081E0AC
:1015B0004AC08091E80082FD3FC0809135018823B8
:1015C00009F440C08091E80080FF2AC08091F300B8
:1015D0009091F200D82ECC24C92FD0E0CC29DD295F
:1015E0000CC089010F5F1F4FC901DED68093F10047
:1015F0000894E108F10821969801E114F10419F02A
:10160000C830D10570F340E0289709F441E080919B
:10161000E800982F9E7F9093E8008F778093E800F2
:10162000E114F10409F0BFCF442309F0BCCF04C09A
:1016300080913501882331F08091E80082FFF8CF56
:1016400080E001C082E0DF91CF911F910F91FF9068
:10165000EF90DF90CF9008957BD082D0109235012B
:101660001092330110923201109231018AE482BF4C
:1016700080E189BD89B5826089BD09B400FEFDCFD6
:101680008091D800982F9F779093D800806880939E
:10169000D8008091D70081608093D7008091D800D6
:1016A0008F7D8093D8008091E0008B7F8093E00055
:1016B0008091E0008E7F8093E0008091E1008E7F3A
:1016C0008093E1008091E20081608093E20080914C
:1016D000E100877F8093E1008091E2008860809341
:1016E000E2008091D80081608093D8000895B4DF33
:1016F000E0EEF0E0808181608083E8EDF0E08081C1
:101700008F77808319BC80818F7E80831092340113
:101710000895A2DFE8EDF0E080818061808381E0C0
:10172000809334017894089508951F938091350132
:10173000882361F01091E9001092E9008091E8009F
:1017400083FF01C0DDDB17701093E9001F9108953E
:10175000E8EDF0E080818E7F80831092E2000895B2
:101760001092DA001092E10008951F920F920FB6C6
:101770000F921124EF92FF921F932F933F934F9359
:101780005F936F937F938F939F93AF93BF93EF93E9
:10179000FF9389EEE82EF12CF70110811770C5DF59
:1017A000E8EEF0E08081877F8083F7011083FF916E
:1017B000EF91BF91AF919F918F917F916F915F91C9
:1017C0004F913F912F911F91FF90EF900F900FBE7F
:1017D0000F901F9018951F920F920FB60F92112421
:1017E0002F933F934F935F936F937F938F939F9329
:1017F000AF93BF93EF93FF938091DA0080FF17C000
:101800008091D80080FF13C08091DA008E7F809392
:10181000DA008091D90080FF06C081E08093350115
:101820000E945F0104C0109235010E94590180910D
:10183000E10080FF1DC08091E20080FF19C080910F
:10184000E1008E7F8093E1008091E2008E7F8093A3
:10185000E2008091E20080618093E2008091D800F4
:1018600080628093D80019BC85E0809335015CDFED
:101870008091E10084FF2AC08091E20084FF26C0AD
:1018800080E189BD89B5826089BD09B400FEFDCFC4
:101890008091D8008F7D8093D8008091E1008F7E69
:1018A0008093E1008091E2008F7E8093E20080913E
:1018B000E20081608093E20080913301882311F47B
:1018C00083E001C084E0809335012EDF8091E10048
:1018D00083FF28C08091E20083FF24C08091E10053
:1018E000877F8093E10082E080933501109233017D
:1018F0008091E1008E7F8093E1008091E2008E7FF5
:101900008093E2008091E20080618093E2003EDCFF
:1019100080E060E042E027DC8091F0008860809306
:10192000F00002DF8091E10082FF0AC08091E200B6
:1019300082FF06C08091E1008B7F8093E100F4DE9E
:10194000FF91EF91BF91AF919F918F917F916F9197
:101950005F914F913F912F910F900FBE0F901F906D
:10196000189584B1837A84B985E38A95F1F78EE07E
:1019700091E00895662349F4E82FF0E0EC59FE4F1A
:10198000E49184B1E82BE4B90895262F30E0882350
:1019900049F42C593E4FF901849194B180958923E3
:1019A00084B90895E82FF0E0EC59FE4F44912C598A
:1019B0003E4FF901949184B1482B44B984B190957C
:1019C000982394B9089574DA282F30E0C9019695C8
:1019D0008795969587958095817023FF826024FF77
:1019E00084600895EF92FF920F931F93082FF62EB5
:1019F00018EC45E3E42E04C011508E2D8A95F1F7C2
:101A000057DA80238F1511F41123B1F751DA90E0E2
:101A100008230F1191E0892F1F910F91FF90EF90F4
:101A20000895FF920F931F93E82FF0E0EC59FE4FBB
:101A30000491662311F410E00AC0102F08C00E9420
:101A40004A01882359F08F2D8A95F1F702C055E39A
:101A5000F52E2EDA8023811791F381E01F910F91EB
:101A6000FF900895BF92CF92DF92EF92FF920F9373
:101A70001F93CF93DF93B82E84B1837E84B9269AC7
:101A800088EE93E020E931E0F9013197F1F7019711
:101A9000D9F72698CCE4DDE178ECE72EF12C68E567
:101AA000C62E62E0D62E00E911E084B1837A84B9B3
:101AB000C7010197F1F71A9902C0C60106C0C70114
:101AC0000197F1F71A9904C0C8010197F1F70EC008
:101AD000249AC8010197F1F71A9B02C0249806C006
:101AE0002498C8010197F1F71A9908C00E944A0189
:101AF000882321F02197C9F6BB20B9F6DF91CF9159
:101B00001F910F91FF90EF90DF90CF90BF900895BD
:101B10004F925F926F927F928F929F92AF92BF92FD
:101B2000CF92DF92EF92FF920F931F93CF93DF93A9
:101B30005C0161E00E943C02EE24FF24BAE64B2ED9
:101B4000AAE05A2ECC24C394F8E16F2EF1E07F2E48
:101B5000E8EC8E2E912CC0E0D0E00CC083ECC035B8
:101B6000D80771F00E944A01882351F02196842DF4
:101B70008A95F1F71B9BF2CF80912D01882329F0E4
:101B80000E940103EE24FF2450C0229898EC04C068
:101B90009150852D8A95F1F71B9B02C09923C1F7BF
:101BA0001B9B07C0C0922D01229AC3010197F1F738
:101BB0002298F89488E068E015DF182FDD2400E013
:101BC00011C088E060E00EDF182F882339F00695F9
:101BD0001A99006888E068E005DF182FD39488E040
:101BE000D81611F0112369F77894112361F0229A25
:101BF000802F0E9451028823B1F40894E11CF11C4B
:101C0000C4010197F1F7A895EA14FB0441F01123F0
:101C100041F080912D01882309F49DCF04C0112348
:101C200011F4EE24FF240E940103C701DF91CF913C
:101C30001F910F91FF90EF90DF90CF90BF90AF90EA
:101C40009F908F907F906F905F904F9008954F92EC
:101C50005F926F927F928F929F92AF92BF92CF923C
:101C6000DF92EF92FF920F931F93DF93CF930F9228
:101C7000CDB7DEB77C01D62E10922D01009709F466
:101C800099C060E00E943C0280E560E0ABDE882302
:101C9000B9F0229842E0C42ECD20D1FC02C098E0D9
:101CA00001C098E184B1982B94B98AE08A95F1F744
:101CB00084E064E097DE882331F484B1877E84B9C0
:101CC0000E94010377C085ED8A95F1F787013E01F7
:101CD0000894611C711C3CE2832E31E0932E2AE0B3
:101CE000422E9AE6592E80E9A82E81E0B82E1A9944
:101CF0003EC0239805C00E944A01882309F437C0DA
:101D00001A9BF9CF6CC0CC2031F484E064E06ADE29
:101D100084E060E067DE239AC3010E947602882394
:101D200031F5398128E0C4010197F1F730FD04C095
:101D3000229A842D8A95F1F72398852D8A95F1F7BB
:101D4000239A2298215011F03695EDCF84E064E07B
:101D500049DE882361F001501040C5010197F1F779
:101D6000A8950115110509F0C2CF870102C000E056
:101D700010E00E94010301151105A9F0D0FE11C069
:101D8000229A249881E08A95F1F723988AE08A952F
:101D9000F1F704C00E944A01882361F01B99FACF31
:101DA0000BC0249809C08AE68A95F1F784B1877E32
:101DB00084B902C000E010E0C8010F90CF91DF911C
:101DC0001F910F91FF90EF90DF90CF90BF90AF9059
:101DD0009F908F907F906F905F904F90089501300B
:101DE000110509F098CF8FCFCF92DF92EF92FF923B
:101DF0000F931F9308E010E09AE0C92EDD24D394DE
:101E000004C00E944A01882399F11A9BFACF2398B3
:101E10008C2D8A95F1F783B18695869586958D25CB
:101E2000FF24F394F82280FD02C0EE2402C080E873
:101E3000E82E229A04C00E944A018823C9F083B187
:101E40008695869586958D258170F816A1F3229842
:101E50008C2D8A95F1F704C00E944A01882341F035
:101E60001A99FACF16951E29239A015011F0CDCF59
:101E70001FEF812F1F910F91FF90EF90DF90CF9078
:101E80000895FF920F931F93182F08E02AE0F22E77
:101E900017FF02C0229A01C022988F2D8A95F1F770
:101EA00023988F2D8A95F1F704C00E944A01882358
:101EB000F1F01B99FACF17FF02C0229806C0229AB0
:101EC00004C00E944A01882391F01B9BFACF239AF9
:101ED00022988F2D8A95F1F704C00E944A01882329
:101EE00031F01A99FACF015011F0110FD1CF1F9193
:101EF0000F91FF900895EF92FF920F931F9310E0C0
:101F000004E09AE0E92E04C00E944A01882319F1F6
:101F10001B9BFACF8E2D8A95F1F71A9B02C0FF24E6
:101F200002C080E8F82E249804C00E944A01882349
:101F300091F01B99FACF8E2D8A95F1F71A9B02C06A
:101F400080E001C080E816951F291695182B249A69
:101F5000015011F0DDCF1FEF812F1F910F91FF90E6
:101F6000EF900895FF920F931F93182F04E02AE03B
:101F7000F22E10FF02C0229A01C022988F2D8A955E
:101F8000F1F7249804C00E944A018823D9F01B9BD2
:101F9000FACF169510FF02C0229A01C022988F2D09
:101FA0008A95F1F7249A04C00E944A01882351F0CF
:101FB0001B99FACF015011F01695DBCF22988AE0D9
:101FC0008A95F1F71F910F91FF900895CF93DF93BA
:101FD000EC0104C00E944A01882379F11A99FACFD2
:101FE00080B38F7080BB8AB1807F8AB981B38F70D4
:101FF00081BB8BB1807F8BB99FB189B18F70907F8E
:10200000892B8883239804C00E944A018823A9F061
:102010001A9BFACF80B38F7080BB8AB1807F8AB958
:1020200081B38F7081BB8BB1807F8BB99FB189B138
:102030008F70907F892B8983239ADF91CF910895A8
:10204000CF93DF93EC0105C00E944A01882309F475
:102050003DC01A99F9CF80B3806F80BB8AB18F6081
:102060008AB981B38F7081BB8BB1807F8BB921B36B
:102070009881892F807F822B81BB8BB19F70982B99
:102080009BB982E08A95F1F7239804C00E944A0127
:102090008823E1F01A9BFACF80B3806F80BB8AB1AE
:1020A0008F608AB981B38F7081BB8BB1807F8BB910
:1020B00021B39981892F807F822B81BB8BB19F7047
:1020C000982B9BB982E08A95F1F7239ADF91CF9103
:1020D00008950F931F93239804C00E944A018823F8
:1020E000E9F01A9BFACF80B38F7080BB8AB1807FF2
:1020F0008AB981B38F7081BB8BB1807F8BB91FB1DF
:1021000009B1239A04C00E944A01882339F01A9920
:10211000FACF802F8F70107F812B01C08FEF1F911E
:102120000F91089590B3906F90BB9AB19F609AB948
:1021300091B39F7091BB9BB1907F9BB921B3982FB6
:10214000907F922B91BB9BB18F70982B9BB982E0B3
:102150008A95F1F7239804C00E944A01882351F020
:102160001A9BFACF239A04C00E944A01882311F0D7
:102170001A99FACF0895249A84B1837F84B98AE1A9
:102180008A95F1F71A9BFECF85E08A95F1F780B327
:102190008F7080BB8AB1807F8AB981B38F7081BB19
:1021A0008BB1807F8BB92FB189B124981A99FECF5A
:1021B0009AE19A95F1F78F70207F822B0895FC01A8
:1021C00091E083B186958695892781708617C9F736
:1021D00080B38F7080BB8AB1807F8AB981B38F70E2
:1021E00081BB8BB1807F8BB99FB189B18F70907F9C
:1021F000892B808380E00895282F249A84B1837FDF
:1022000084B98AE18A95F1F71A9BFECF80B3806F7B
:1022100080BB8AB18F608AB981B38F7081BB8BB16B
:10222000807F8BB991B3822F807F892B81BB8BB14B
:102230002F70822B8BB985E08A95F1F7249885E37E
:102240008A95F1F71A99FECF80B38F7080BB8AB15F
:10225000807F8AB981B38F7081BB8BB1807F8BB94E
:102260008FB189B10895282F91E083B18695869525
:10227000892781708617C9F780B3806F80BB8AB1C8
:102280008F608AB981B38F7081BB8BB1807F8BB92E
:1022900091B3822F807F892B81BB8BB12F70822BD2
:1022A0008BB980E00895249A84B1837D84B985E058
:1022B0008A95F1F790E028E032E01D99FECF1D9B52
:1022C000FECF832F8A95F1F783B1990F8695869576
:1022D0008170982B215089F724981B9BFECF892F62
:1022E0000895282F249A84B1837D84B98AE18A9540
:1022F000F1F71B99FECF98E041E034E027FF02C0E0
:10230000229801C0229A259A842F8A95F1F7259860
:10231000832F8A95F1F7915011F0220FEFCF85E0CE
:102320008A95F1F724981B9BFECF0895482F20E053
:1023300030E091E005C02F5F3F4F24363105F1F0CA
:1023400083B186958695869589278170861799F73A
:1023500098E031E024E047FF02C0229801C0229AB1
:10236000259A832F8A95F1F72598822F8A95F1F780
:10237000915011F480E00895440FEDCF8FEF089550
:10238000AA1BBB1B51E107C0AA1FBB1FA617B7079B
:1023900010F0A61BB70B881F991F5A95A9F78095B7
:1023A0009095BC01CD010895F999FECF92BD81BDF4
:0C23B000F89A992780B50895F894FFCFA3
:1023BC000304000F08033000300030000000320D21
:0E23CC00270E880D110DE30CBA0C0055AAFF68
:00000001FF
